{
  "_format": "hh3-artifact-1",
  "contractName": "HashRegistry",
  "sourceName": "contracts/HashRegistry.sol",
  "abi": [
    {
      "anonymous": false,
      "inputs": [
        {
          "indexed": true,
          "internalType": "bytes32",
          "name": "hash",
          "type": "bytes32"
        },
        {
          "indexed": true,
          "internalType": "address",
          "name": "uploader",
          "type": "address"
        }
      ],
      "name": "HashUploaded",
      "type": "event"
    },
    {
      "inputs": [
        {
          "internalType": "bytes32",
          "name": "hash",
          "type": "bytes32"
        }
      ],
      "name": "uploadHash",
      "outputs": [],
      "stateMutability": "nonpayable",
      "type": "function"
    },
    {
      "inputs": [
        {
          "internalType": "bytes32",
          "name": "hash",
          "type": "bytes32"
        }
      ],
      "name": "verifyHash",
      "outputs": [
        {
          "internalType": "bool",
          "name": "",
          "type": "bool"
        }
      ],
      "stateMutability": "view",
      "type": "function"
    }
  ],
  "bytecode": "0x6080604052348015600e575f5ffd5b5061016f8061001c5f395ff3fe608060405234801561000f575f5ffd5b5060043610610034575f3560e01c80639c7d690314610038578063ef020f4a1461004d575b5f5ffd5b61004b610046366004610122565b610083565b005b61006f61005b366004610122565b5f9081526020819052604090205460ff1690565b604051901515815260200160405180910390f35b5f8181526020819052604090205460ff16156100dd5760405162461bcd60e51b815260206004820152601560248201527412185cda08185b1c9958591e481d5c1b1bd8591959605a1b604482015260640160405180910390fd5b5f81815260208190526040808220805460ff1916600117905551339183917f4896286f07123477ceb5eae990926b7957d432c2ebe4f61020a47d2cb30641db9190a350565b5f60208284031215610132575f5ffd5b503591905056fea2646970667358221220f237e282cd0db7110ce451deb47c4cea6431349f60535197687f6fca109b51ef64736f6c634300081c0033",
  "linkReferences": {},
  "deployedLinkReferences": {},
  "immutableReferences": {},
  "inputSourceName": "project/contracts/HashRegistry.sol",
  "buildInfoId": "solc-0_8_28-7c6020215d72c70d1e4c6fb71baeeeca694e536e"
}